:030000000206F500
:0C06F500787FE4F6D8FD75813F02073CD9
:1007810041542B4349504D55583D310A0041542B9A
:100791004349505345525645523D312C383038303B
:1007A1000A002057616974696E672020202020208B
:1007B10020200020574946492020436F6E74726FF4
:1007C1006C202000523D302053746F702020202077
:1007D100202020200073746F7020200072696768E8
:1007E1007420006C6566742020006261636B2020B8
:0807F10000666F72776172006F
:1008200002290001022B0001022D0001022F00010C
:1008300002310000012300012400023E0000023CBE
:0608400000000225002863
:03091100DFFE22E4
:1008B100AD07AC06ED1DAE0470011C4E600C7FF55A
:0B08C1001209117FF512091180EA22D4
:1008F5007580FFC295D296C29700D297E5803322C4
:0E0892007F381208A07F057E001208B17F3863
:1008A0001208F540FBC295C296D2978F8000C2977E
:0108B0002225
:1008E4001208F540FBD295C296D2978F8000C2972A
:0108F40022E1
:0C0905007F011208A07F057E000208B1EF
:10086E00AE07ED7005EE24808003EE24C0FF120863
:10087E00A0120651FF600C1208E4740129F9E43A43
:04088E00FA80EE22DC
:1008CC00AE07AC03ED7005EE24808003EE24C0FF70
:0808DC001208A0AF040208E4B9
:1007F9001208927F057E001208B11208927F081232
:1008090008A07F011208A07F061208A01F7E00120F
:0708190008B17F0C0208A0EA
:10055A00759850758920758BFD758DFDD299D28E4F
:10056A007FE87E031208B1E4F527F528AE27AF2805
:10057A00E4FCFD7B507AC3F9F8D312066A400A05F7
:10058A0028E52870E7052780E37BFF7A077981123F
:10059A00006530982E859922C298E522B44B09E469
:1005AA00F529F52AF52DF52E052CE52C7002052BDB
:1005BA00B4E810E52BB4030B752B00752C01E4F598
:1005CA002DF52EE52E452D70C9E52A45297098F599
:1005DA0029752A01F52B752C01F52D752E01E4F5E7
:1005EA0027F528AE27AF28E4FCFD7B507AC3F9F83B
:1005FA00D312066A400A0528E52870E7052780E332
:10060A007BFF7A07798E12006530982E859922C26F
:10061A0098E522B44B09E4F529F52AF52DF52E05BE
:10062A002CE52C7002052BB4E810E52BB4030B75EE
:10063A002B00752C01E4F52DF52EE52E452D70C9FC
:07064A00E52A452970982202
:10035F001207F91209057BFF7A0779A3E4FDFF1253
:10036F00086E7A0779B40DE4FF12086E12055A7BF6
:10037F00FF7A0779C5E4FDFF12086E209803020487
:10038F0046D2A0D2A1D2A2D2A3859922C298E522A9
:10039F00643A6003020446F531F532F52F753001EA
:1003AF0030981E859922C29874332532F8A62205FB
:1003BF0032E53270020531E522B45405E4F52FF52C
:1003CF0030E530452F70D97B52FDFF1208CC7B3DB5
:1003DF007F011208CCAB337F021208CCE533B43562
:1003EF000B7524057BFF7A0779D68046E533B43445
:1003FF000D7524047BFF7A0779DDE4FD8034E53346
:10040F00B4330D7524037BFF7A0779E4E4FD802272
:10041F00E533B4320D7524027BFF7A0779EBE4FDE7
:10042F008010E533B431107524017BFF7A0779F220
:10043F00E4FD7F0412086EE524B40135C3E53D9554
:10044F0026E5256480F8E53C6480985004D2A080AE
:10045F0002C2A0C2A1C3E53D9526E5256480F8E55B
:10046F003C6480985004D2A28002C2A2C2A30205AB
:10047F003AE524B40236C2A0C3E53D9526E52564CE
:10048F0080F8E53C6480985004D2A18002C2A1C2DA
:10049F00A2C3E53D9526E5256480F8E53C64809888
:1004AF005005D2A302053AC2A302053AE524B403CC
:1004BF0034C3E53D9526E5256480F8E53C648098D6
:1004CF005004D2A08002C2A0C2A1C2A2C3E53D9532
:1004DF0026E5256480F8E53C6480985004D2A3801B
:1004EF004AC2A38046E524B40434C2A0C3E53D95B7
:1004FF0026E5256480F8E53C6480985004D2A180FD
:10050F0002C2A1C3E53D9526E5256480F8E53C646C
:10051F0080985004D2A28002C2A2C2A3800DE5240B
:10052F00B40508D2A0D2A1D2A2D2A3D3E53D946440
:10053F00E53C648094804008E4F53CF53D02038A75
:0B054F00053DE53D7002053C02038AFB
:1007010002035FE493A3F8E493A34003F68001F2AC
:1007110008DFF48029E493A3F85407240CC8C333F9
:10072100C4540F4420C8834004F456800146F6DFC8
:10073100E4800B0102040810204080900820E47E30
:10074100019360BCA3FF543F30E509541FFEE493BD
:10075100A360010ECF54C025E060A840B8E493A384
:10076100FAE493A3F8E493A3C8C582C8CAC583CAAF
:10077100F0A3C8C582C8CAC583CADFE9DEE780BE67
:0108460000B1
:10065100BB010689828A83E0225002E722BBFE02A7
:09066100E32289828A83E49322DA
:10066A00EB9FF5F0EA9E42F0E99D42F0EC6480C807
:06067A0064809845F022A7
:10000300E517240BF8E60517227808300702780B6A
:10001300E475F0011206BF0206512000EB7F2ED2D9
:10002300008018EF540F2490D43440D4FF30040BD5
:10003300EF24BFB41A0050032461FFE518600215D2
:1000430018051BE51B7002051A30070D7808E475C7
:10005300F0011206BFEF0206AD0208477403D20790
:100063008003E4C207F5178B088A09890AE4F518A7
:10007300F51AF51BE51860077F2012003E80F57521
:1000830019FFC201C200C202C203C205C206C208EE
:1000930012000CFF700D3007057F0012004FAF1BDD
:1000A300AE1A22B4255FC2D5C20412000CFF24D0BD
:1000B300B40A00501A75F00A781830D50508B6FF4F
:1000C3000106C6A426F620D5047002D20380D924E3
:1000D300CFB41A00EF5004C2E5D20402024FD2019A
:1000E30080C6D20080C0D20280BCD2D580BAD205ED
:1000F30080B47F2012003E2002077401B51800402F
:10010300F1120003FF12003E020077D208D20680EC
:1001130095120003FB120003FA120003F94A4B7015
:100123000679207A037BFF20022EE518602A7E00E1
:100133008E8275830012068060060EEE651970F0DC
:10014300C2D5EBC0E0EAC0E0E9C0E0EE120296D00F
:10015300E0F9D0E0FAD0E0FB120651FF60AAEBC051
:10016300E0EAC0E0E9C0E012003ED0E02401F9D0AB
:10017300E03400FAD0E0FBE5190460DCD519D9803E
:10018300877BFF7A027992D202809C791080027970
:1001930008C206C2088008D2D5790A8004790AC247
:1001A300D5E519047002F519E4FAFDFEFF12000308
:1001B300FC7B08200113120003FD7B1030000A12A0
:1001C3000003FE120003FF7B20EC3382D592D5504F
:1001D30013C3E43000069FFFE49EFEE42001039D69
:1001E300FDE49CFCE4CBF8C201EC700CCFCECDCC8B
:1001F300E824F8F870F38017C3EF33FFEE33FEED16
:1002030033FDEC33FCEB33FB994002FB0FD8E9EBF6
:10021300300105F8D0E0C448B201C0E00AEC4D4E0D
:100223004F78207B0070C2EAB5190040BCC0E012D1
:100233000298D0F0D0E0200104C4C0E0C4B201C0F1
:10024300F0120027D0F0D5F0EB0200771206CF01B1
:100253001453018E5800E54C00E14201924F019A7C
:0F02630044019A4900FA4301A0550184460184E1
:100272004501844703405000E92D00ED2E01102B6B
:1002820000F123010E2003292A00A94800000108D9
:100292003F3F3F00790AA2D5200314300509B91067
:1002A200020404B9080104A2D52006025001042068
:1002B20002689202B518005034C0E07F2030031962
:1002C2007F30A20272067205500F1202EFC202C202
:1002D20006C205C2087F30800F300503E9C0E01274
:1002E200003E300503D0E0F9D0E0B518CC30051758
:1002F2007F30B9100C12003E7F583004077F78809F
:1003020003B9080312003E3002057F2D02003E7F32
:10031200202008F87F2B2006F322920280CF286E3D
:10032200756C6C2900D2011200033001F8C2017809
:100332001830D50108F60200A92D50434958120081
:10034200032403B405004001E490033B9312002F01
:0D035200743A12002FD20375180402018EB8
:10068000BB010CE58229F582E5833AF583E022502F
:1006900006E92582F8E622BBFE06E92582F8E22279
:0D06A000E58229F582E5833AF583E4932293
:1006AD00BB010689828A83F0225002F722BBFE012C
:0206BD00F32226
:1006BF00FAE6FB0808E6F925F0F618E6CA3AF6223C
:1006CF00D083D082F8E4937012740193700DA3A3BA
:1006DF0093F8740193F5828883E4737402936860CE
:0606EF00EFA3A3A380DFCE
:10084700EFB40A07740D120852740A309811A89968
:10085700B8130CC2983098FDA899C298B811F63011
:0708670099FDC299F59922E9
:00000001FF
